{
  "_format": "hh-sol-artifact-1",
  "contractName": "P2PTransferProject",
  "sourceName": "contracts/p2p.sol",
  "abi": [
    {
      "inputs": [
        {
          "internalType": "string",
          "name": "_name",
          "type": "string"
        }
      ],
      "stateMutability": "nonpayable",
      "type": "constructor"
    },
    {
      "anonymous": false,
      "inputs": [
        {
          "indexed": true,
          "internalType": "bytes32",
          "name": "id",
          "type": "bytes32"
        },
        {
          "indexed": true,
          "internalType": "address",
          "name": "destination",
          "type": "address"
        },
        {
          "indexed": false,
          "internalType": "uint256",
          "name": "value",
          "type": "uint256"
        },
        {
          "indexed": false,
          "internalType": "string",
          "name": "reason",
          "type": "string"
        },
        {
          "indexed": false,
          "internalType": "uint256",
          "name": "timestamp",
          "type": "uint256"
        }
      ],
      "name": "TransactionSent",
      "type": "event"
    },
    {
      "inputs": [],
      "name": "getAllTransactions",
      "outputs": [
        {
          "components": [
            {
              "internalType": "bytes32",
              "name": "id",
              "type": "bytes32"
            },
            {
              "internalType": "address payable",
              "name": "destination",
              "type": "address"
            },
            {
              "internalType": "uint256",
              "name": "value",
              "type": "uint256"
            },
            {
              "internalType": "uint256",
              "name": "timestamp",
              "type": "uint256"
            },
            {
              "internalType": "string",
              "name": "reason",
              "type": "string"
            }
          ],
          "internalType": "struct P2PTransferProject.Transaction[]",
          "name": "",
          "type": "tuple[]"
        }
      ],
      "stateMutability": "view",
      "type": "function"
    },
    {
      "inputs": [],
      "name": "getBalance",
      "outputs": [
        {
          "internalType": "uint256",
          "name": "",
          "type": "uint256"
        }
      ],
      "stateMutability": "view",
      "type": "function"
    },
    {
      "inputs": [],
      "name": "getName",
      "outputs": [
        {
          "internalType": "string",
          "name": "",
          "type": "string"
        }
      ],
      "stateMutability": "view",
      "type": "function"
    },
    {
      "inputs": [],
      "name": "getOwner",
      "outputs": [
        {
          "internalType": "address",
          "name": "",
          "type": "address"
        }
      ],
      "stateMutability": "view",
      "type": "function"
    },
    {
      "inputs": [],
      "name": "name",
      "outputs": [
        {
          "internalType": "string",
          "name": "",
          "type": "string"
        }
      ],
      "stateMutability": "view",
      "type": "function"
    },
    {
      "inputs": [],
      "name": "owner",
      "outputs": [
        {
          "internalType": "address",
          "name": "",
          "type": "address"
        }
      ],
      "stateMutability": "view",
      "type": "function"
    },
    {
      "inputs": [
        {
          "internalType": "address payable",
          "name": "_destination",
          "type": "address"
        },
        {
          "internalType": "uint256",
          "name": "_amount",
          "type": "uint256"
        },
        {
          "internalType": "string",
          "name": "_reason",
          "type": "string"
        }
      ],
      "name": "sendTo",
      "outputs": [],
      "stateMutability": "nonpayable",
      "type": "function"
    },
    {
      "inputs": [
        {
          "internalType": "string",
          "name": "_name",
          "type": "string"
        }
      ],
      "name": "setName",
      "outputs": [],
      "stateMutability": "nonpayable",
      "type": "function"
    },
    {
      "inputs": [
        {
          "internalType": "uint256",
          "name": "",
          "type": "uint256"
        }
      ],
      "name": "transactions",
      "outputs": [
        {
          "internalType": "bytes32",
          "name": "id",
          "type": "bytes32"
        },
        {
          "internalType": "address payable",
          "name": "destination",
          "type": "address"
        },
        {
          "internalType": "uint256",
          "name": "value",
          "type": "uint256"
        },
        {
          "internalType": "uint256",
          "name": "timestamp",
          "type": "uint256"
        },
        {
          "internalType": "string",
          "name": "reason",
          "type": "string"
        }
      ],
      "stateMutability": "view",
      "type": "function"
    },
    {
      "stateMutability": "payable",
      "type": "receive"
    }
  ],
  "bytecode": "0x608060405234801561001057600080fd5b50604051611a8a380380611a8a833981810160405281019061003291906101fd565b336000806101000a81548173ffffffffffffffffffffffffffffffffffffffff021916908373ffffffffffffffffffffffffffffffffffffffff16021790555080600190816100819190610467565b5050610539565b6000604051905090565b600080fd5b600080fd5b600080fd5b600080fd5b6000601f19601f8301169050919050565b7f4e487b7100000000000000000000000000000000000000000000000000000000600052604160045260246000fd5b6100ef826100a6565b810181811067ffffffffffffffff8211171561010e5761010d6100b7565b5b80604052505050565b6000610121610088565b905061012d82826100e6565b919050565b600067ffffffffffffffff82111561014d5761014c6100b7565b5b610156826100a6565b9050602081019050919050565b60005b83811015610181578082015181840152602081019050610166565b60008484015250505050565b60006101a061019b84610132565b610117565b9050828152602081018484840111156101bc576101bb6100a1565b5b6101c7848285610163565b509392505050565b600082601f8301126101e4576101e361009c565b5b81516101f484826020860161018d565b91505092915050565b60006020828403121561021357610212610092565b5b600082015167ffffffffffffffff81111561023157610230610097565b5b61023d848285016101cf565b91505092915050565b600081519050919050565b7f4e487b7100000000000000000000000000000000000000000000000000000000600052602260045260246000fd5b6000600282049050600182168061029857607f821691505b6020821081036102ab576102aa610251565b5b50919050565b60008190508160005260206000209050919050565b60006020601f8301049050919050565b600082821b905092915050565b6000600883026103137fffffffffffffffffffffffffffffffffffffffffffffffffffffffffffffffff826102d6565b61031d86836102d6565b95508019841693508086168417925050509392505050565b6000819050919050565b6000819050919050565b600061036461035f61035a84610335565b61033f565b610335565b9050919050565b6000819050919050565b61037e83610349565b61039261038a8261036b565b8484546102e3565b825550505050565b600090565b6103a761039a565b6103b2818484610375565b505050565b5b818110156103d6576103cb60008261039f565b6001810190506103b8565b5050565b601f82111561041b576103ec816102b1565b6103f5846102c6565b81016020851015610404578190505b610418610410856102c6565b8301826103b7565b50505b505050565b600082821c905092915050565b600061043e60001984600802610420565b1980831691505092915050565b6000610457838361042d565b9150826002028217905092915050565b61047082610246565b67ffffffffffffffff811115610489576104886100b7565b5b6104938254610280565b61049e8282856103da565b600060209050601f8311600181146104d157600084156104bf578287015190505b6104c9858261044b565b865550610531565b601f1984166104df866102b1565b60005b82811015610507578489015182556001820191506020850194506020810190506104e2565b868310156105245784890151610520601f89168261042d565b8355505b6001600288020188555050505b505050505050565b611542806105486000396000f3fe60806040526004361061008a5760003560e01c806327506f531161005957806327506f5314610140578063893d20e81461016b5780638da5cb5b146101965780639ace38c2146101c1578063c47f00271461020257610091565b806306fdde031461009657806312065fe0146100c157806316e49145146100ec57806317d7de7c1461011557610091565b3661009157005b600080fd5b3480156100a257600080fd5b506100ab61022b565b6040516100b89190610a20565b60405180910390f35b3480156100cd57600080fd5b506100d66102b9565b6040516100e39190610a5b565b60405180910390f35b3480156100f857600080fd5b50610113600480360381019061010e9190610c49565b6102c1565b005b34801561012157600080fd5b5061012a6105bd565b6040516101379190610a20565b60405180910390f35b34801561014c57600080fd5b5061015561064f565b6040516101629190610e71565b60405180910390f35b34801561017757600080fd5b506101806107b4565b60405161018d9190610eb4565b60405180910390f35b3480156101a257600080fd5b506101ab6107dd565b6040516101b89190610eb4565b60405180910390f35b3480156101cd57600080fd5b506101e860048036038101906101e39190610ecf565b610801565b6040516101f9959493929190610f1a565b60405180910390f35b34801561020e57600080fd5b5061022960048036038101906102249190610f74565b6108ef565b005b6001805461023890610fec565b80601f016020809104026020016040519081016040528092919081815260200182805461026490610fec565b80156102b15780601f10610286576101008083540402835291602001916102b1565b820191906000526020600020905b81548152906001019060200180831161029457829003601f168201915b505050505081565b600047905090565b60008054906101000a900473ffffffffffffffffffffffffffffffffffffffff1673ffffffffffffffffffffffffffffffffffffffff163373ffffffffffffffffffffffffffffffffffffffff161461034f576040517f08c379a000000000000000000000000000000000000000000000000000000000815260040161034690611069565b60405180910390fd5b47821115610392576040517f08c379a0000000000000000000000000000000000000000000000000000000008152600401610389906110d5565b60405180910390fd5b600073ffffffffffffffffffffffffffffffffffffffff168373ffffffffffffffffffffffffffffffffffffffff1603610401576040517f08c379a00000000000000000000000000000000000000000000000000000000081526004016103f890611141565b60405180910390fd5b60008383428460405160200161041a9493929190611206565b6040516020818303038152906040528051906020012090508373ffffffffffffffffffffffffffffffffffffffff166108fc849081150290604051600060405180830381858888f19350505050158015610478573d6000803e3d6000fd5b5060006040518060a001604052808381526020018673ffffffffffffffffffffffffffffffffffffffff16815260200185815260200142815260200184815250905060028190806001815401808255809150506001900390600052602060002090600502016000909190919091506000820151816000015560208201518160010160006101000a81548173ffffffffffffffffffffffffffffffffffffffff021916908373ffffffffffffffffffffffffffffffffffffffff1602179055506040820151816002015560608201518160030155608082015181600401908161056091906113fc565b5050508473ffffffffffffffffffffffffffffffffffffffff16827fb5f1ee3947e480415f07df578f9b1b7c3648c77c80fd786e16e2a471695aab798686426040516105ae939291906114ce565b60405180910390a35050505050565b6060600180546105cc90610fec565b80601f01602080910402602001604051908101604052809291908181526020018280546105f890610fec565b80156106455780601f1061061a57610100808354040283529160200191610645565b820191906000526020600020905b81548152906001019060200180831161062857829003601f168201915b5050505050905090565b60606002805480602002602001604051908101604052809291908181526020016000905b828210156107ab57838290600052602060002090600502016040518060a0016040529081600082015481526020016001820160009054906101000a900473ffffffffffffffffffffffffffffffffffffffff1673ffffffffffffffffffffffffffffffffffffffff1673ffffffffffffffffffffffffffffffffffffffff168152602001600282015481526020016003820154815260200160048201805461071a90610fec565b80601f016020809104026020016040519081016040528092919081815260200182805461074690610fec565b80156107935780601f1061076857610100808354040283529160200191610793565b820191906000526020600020905b81548152906001019060200180831161077657829003601f168201915b50505050508152505081526020019060010190610673565b50505050905090565b60008060009054906101000a900473ffffffffffffffffffffffffffffffffffffffff16905090565b60008054906101000a900473ffffffffffffffffffffffffffffffffffffffff1681565b6002818154811061081157600080fd5b90600052602060002090600502016000915090508060000154908060010160009054906101000a900473ffffffffffffffffffffffffffffffffffffffff169080600201549080600301549080600401805461086c90610fec565b80601f016020809104026020016040519081016040528092919081815260200182805461089890610fec565b80156108e55780601f106108ba576101008083540402835291602001916108e5565b820191906000526020600020905b8154815290600101906020018083116108c857829003601f168201915b5050505050905085565b60008054906101000a900473ffffffffffffffffffffffffffffffffffffffff1673ffffffffffffffffffffffffffffffffffffffff163373ffffffffffffffffffffffffffffffffffffffff161461097d576040517f08c379a000000000000000000000000000000000000000000000000000000000815260040161097490611069565b60405180910390fd5b806001908161098c91906113fc565b5050565b600081519050919050565b600082825260208201905092915050565b60005b838110156109ca5780820151818401526020810190506109af565b60008484015250505050565b6000601f19601f8301169050919050565b60006109f282610990565b6109fc818561099b565b9350610a0c8185602086016109ac565b610a15816109d6565b840191505092915050565b60006020820190508181036000830152610a3a81846109e7565b905092915050565b6000819050919050565b610a5581610a42565b82525050565b6000602082019050610a706000830184610a4c565b92915050565b6000604051905090565b600080fd5b600080fd5b600073ffffffffffffffffffffffffffffffffffffffff82169050919050565b6000610ab582610a8a565b9050919050565b610ac581610aaa565b8114610ad057600080fd5b50565b600081359050610ae281610abc565b92915050565b610af181610a42565b8114610afc57600080fd5b50565b600081359050610b0e81610ae8565b92915050565b600080fd5b600080fd5b7f4e487b7100000000000000000000000000000000000000000000000000000000600052604160045260246000fd5b610b56826109d6565b810181811067ffffffffffffffff82111715610b7557610b74610b1e565b5b80604052505050565b6000610b88610a76565b9050610b948282610b4d565b919050565b600067ffffffffffffffff821115610bb457610bb3610b1e565b5b610bbd826109d6565b9050602081019050919050565b82818337600083830152505050565b6000610bec610be784610b99565b610b7e565b905082815260208101848484011115610c0857610c07610b19565b5b610c13848285610bca565b509392505050565b600082601f830112610c3057610c2f610b14565b5b8135610c40848260208601610bd9565b91505092915050565b600080600060608486031215610c6257610c61610a80565b5b6000610c7086828701610ad3565b9350506020610c8186828701610aff565b925050604084013567ffffffffffffffff811115610ca257610ca1610a85565b5b610cae86828701610c1b565b9150509250925092565b600081519050919050565b600082825260208201905092915050565b6000819050602082019050919050565b6000819050919050565b610cf781610ce4565b82525050565b610d0681610aaa565b82525050565b610d1581610a42565b82525050565b600082825260208201905092915050565b6000610d3782610990565b610d418185610d1b565b9350610d518185602086016109ac565b610d5a816109d6565b840191505092915050565b600060a083016000830151610d7d6000860182610cee565b506020830151610d906020860182610cfd565b506040830151610da36040860182610d0c565b506060830151610db66060860182610d0c565b5060808301518482036080860152610dce8282610d2c565b9150508091505092915050565b6000610de78383610d65565b905092915050565b6000602082019050919050565b6000610e0782610cb8565b610e118185610cc3565b935083602082028501610e2385610cd4565b8060005b85811015610e5f5784840389528151610e408582610ddb565b9450610e4b83610def565b925060208a01995050600181019050610e27565b50829750879550505050505092915050565b60006020820190508181036000830152610e8b8184610dfc565b905092915050565b6000610e9e82610a8a565b9050919050565b610eae81610e93565b82525050565b6000602082019050610ec96000830184610ea5565b92915050565b600060208284031215610ee557610ee4610a80565b5b6000610ef384828501610aff565b91505092915050565b610f0581610ce4565b82525050565b610f1481610aaa565b82525050565b600060a082019050610f2f6000830188610efc565b610f3c6020830187610f0b565b610f496040830186610a4c565b610f566060830185610a4c565b8181036080830152610f6881846109e7565b90509695505050505050565b600060208284031215610f8a57610f89610a80565b5b600082013567ffffffffffffffff811115610fa857610fa7610a85565b5b610fb484828501610c1b565b91505092915050565b7f4e487b7100000000000000000000000000000000000000000000000000000000600052602260045260246000fd5b6000600282049050600182168061100457607f821691505b60208210810361101757611016610fbd565b5b50919050565b7f4f6e6c79206f776e657200000000000000000000000000000000000000000000600082015250565b6000611053600a8361099b565b915061105e8261101d565b602082019050919050565b6000602082019050818103600083015261108281611046565b9050919050565b7f496e73756666696369656e7420636f6e74726163742062616c616e6365000000600082015250565b60006110bf601d8361099b565b91506110ca82611089565b602082019050919050565b600060208201905081810360008301526110ee816110b2565b9050919050565b7f496e76616c69642064657374696e6174696f6e20616464726573730000000000600082015250565b600061112b601b8361099b565b9150611136826110f5565b602082019050919050565b6000602082019050818103600083015261115a8161111e565b9050919050565b60008160601b9050919050565b600061117982611161565b9050919050565b600061118b8261116e565b9050919050565b6111a361119e82610aaa565b611180565b82525050565b6000819050919050565b6111c46111bf82610a42565b6111a9565b82525050565b600081905092915050565b60006111e082610990565b6111ea81856111ca565b93506111fa8185602086016109ac565b80840191505092915050565b60006112128287611192565b60148201915061122282866111b3565b60208201915061123282856111b3565b60208201915061124282846111d5565b915081905095945050505050565b60008190508160005260206000209050919050565b60006020601f8301049050919050565b600082821b905092915050565b6000600883026112b27fffffffffffffffffffffffffffffffffffffffffffffffffffffffffffffffff82611275565b6112bc8683611275565b95508019841693508086168417925050509392505050565b6000819050919050565b60006112f96112f46112ef84610a42565b6112d4565b610a42565b9050919050565b6000819050919050565b611313836112de565b61132761131f82611300565b848454611282565b825550505050565b600090565b61133c61132f565b61134781848461130a565b505050565b5b8181101561136b57611360600082611334565b60018101905061134d565b5050565b601f8211156113b05761138181611250565b61138a84611265565b81016020851015611399578190505b6113ad6113a585611265565b83018261134c565b50505b505050565b600082821c905092915050565b60006113d3600019846008026113b5565b1980831691505092915050565b60006113ec83836113c2565b9150826002028217905092915050565b61140582610990565b67ffffffffffffffff81111561141e5761141d610b1e565b5b6114288254610fec565b61143382828561136f565b600060209050601f8311600181146114665760008415611454578287015190505b61145e85826113e0565b8655506114c6565b601f19841661147486611250565b60005b8281101561149c57848901518255600182019150602085019450602081019050611477565b868310156114b957848901516114b5601f8916826113c2565b8355505b6001600288020188555050505b505050505050565b60006060820190506114e36000830186610a4c565b81810360208301526114f581856109e7565b90506115046040830184610a4c565b94935050505056fea264697066735822122081d430701e28ba503e6b59aacbefa44f9704d0265253053c54416b04b74c9dd464736f6c634300081c0033",
  "linkReferences": {},
  "deployedLinkReferences": {}
}